{
  "address": "0x792504ceb7DE2C0e697a8bDdfa096d1e2CA678d3",
  "abi": [
    {
      "inputs": [],
      "stateMutability": "nonpayable",
      "type": "constructor"
    },
    {
      "inputs": [
        {
          "internalType": "address",
          "name": "owner",
          "type": "address"
        }
      ],
      "name": "OwnableInvalidOwner",
      "type": "error"
    },
    {
      "inputs": [
        {
          "internalType": "address",
          "name": "account",
          "type": "address"
        }
      ],
      "name": "OwnableUnauthorizedAccount",
      "type": "error"
    },
    {
      "anonymous": false,
      "inputs": [
        {
          "indexed": true,
          "internalType": "address",
          "name": "user",
          "type": "address"
        },
        {
          "indexed": false,
          "internalType": "address",
          "name": "token",
          "type": "address"
        },
        {
          "indexed": false,
          "internalType": "uint256",
          "name": "amount",
          "type": "uint256"
        },
        {
          "indexed": false,
          "internalType": "uint256",
          "name": "timestamp",
          "type": "uint256"
        }
      ],
      "name": "Invested",
      "type": "event"
    },
    {
      "anonymous": false,
      "inputs": [
        {
          "indexed": true,
          "internalType": "address",
          "name": "previousOwner",
          "type": "address"
        },
        {
          "indexed": true,
          "internalType": "address",
          "name": "newOwner",
          "type": "address"
        }
      ],
      "name": "OwnershipTransferred",
      "type": "event"
    },
    {
      "anonymous": false,
      "inputs": [
        {
          "indexed": true,
          "internalType": "address",
          "name": "user",
          "type": "address"
        },
        {
          "indexed": false,
          "internalType": "address",
          "name": "token",
          "type": "address"
        },
        {
          "indexed": false,
          "internalType": "uint256",
          "name": "amount",
          "type": "uint256"
        },
        {
          "indexed": false,
          "internalType": "uint256",
          "name": "timestamp",
          "type": "uint256"
        }
      ],
      "name": "Withdrawn",
      "type": "event"
    },
    {
      "inputs": [
        {
          "internalType": "address",
          "name": "token",
          "type": "address"
        },
        {
          "internalType": "uint256",
          "name": "amount",
          "type": "uint256"
        }
      ],
      "name": "deposit",
      "outputs": [],
      "stateMutability": "nonpayable",
      "type": "function"
    },
    {
      "inputs": [
        {
          "internalType": "address",
          "name": "user",
          "type": "address"
        }
      ],
      "name": "getInvestment",
      "outputs": [
        {
          "components": [
            {
              "internalType": "address",
              "name": "token",
              "type": "address"
            },
            {
              "internalType": "uint256",
              "name": "amount",
              "type": "uint256"
            },
            {
              "internalType": "uint256",
              "name": "balance",
              "type": "uint256"
            },
            {
              "internalType": "uint256",
              "name": "timestamp",
              "type": "uint256"
            }
          ],
          "internalType": "struct NeuralFi.Investment[]",
          "name": "",
          "type": "tuple[]"
        }
      ],
      "stateMutability": "view",
      "type": "function"
    },
    {
      "inputs": [
        {
          "internalType": "address",
          "name": "user",
          "type": "address"
        }
      ],
      "name": "getLPs",
      "outputs": [
        {
          "components": [
            {
              "internalType": "address",
              "name": "tokenA",
              "type": "address"
            },
            {
              "internalType": "address",
              "name": "tokenB",
              "type": "address"
            }
          ],
          "internalType": "struct NeuralFi.UserLPs[]",
          "name": "",
          "type": "tuple[]"
        }
      ],
      "stateMutability": "view",
      "type": "function"
    },
    {
      "inputs": [],
      "name": "getUsers",
      "outputs": [
        {
          "internalType": "address[]",
          "name": "",
          "type": "address[]"
        }
      ],
      "stateMutability": "view",
      "type": "function"
    },
    {
      "inputs": [
        {
          "internalType": "address",
          "name": "user",
          "type": "address"
        },
        {
          "internalType": "address",
          "name": "tokenA",
          "type": "address"
        },
        {
          "internalType": "address",
          "name": "tokenB",
          "type": "address"
        },
        {
          "internalType": "uint256",
          "name": "amountA",
          "type": "uint256"
        },
        {
          "internalType": "uint256",
          "name": "amountB",
          "type": "uint256"
        },
        {
          "internalType": "uint8",
          "name": "action",
          "type": "uint8"
        }
      ],
      "name": "newTx",
      "outputs": [],
      "stateMutability": "nonpayable",
      "type": "function"
    },
    {
      "inputs": [],
      "name": "owner",
      "outputs": [
        {
          "internalType": "address",
          "name": "",
          "type": "address"
        }
      ],
      "stateMutability": "view",
      "type": "function"
    },
    {
      "inputs": [],
      "name": "renounceOwnership",
      "outputs": [],
      "stateMutability": "nonpayable",
      "type": "function"
    },
    {
      "inputs": [
        {
          "internalType": "address",
          "name": "_token",
          "type": "address"
        },
        {
          "internalType": "bool",
          "name": "_allow",
          "type": "bool"
        }
      ],
      "name": "setToken",
      "outputs": [],
      "stateMutability": "nonpayable",
      "type": "function"
    },
    {
      "inputs": [
        {
          "internalType": "address",
          "name": "_yield",
          "type": "address"
        }
      ],
      "name": "setYield",
      "outputs": [],
      "stateMutability": "nonpayable",
      "type": "function"
    },
    {
      "inputs": [
        {
          "internalType": "address",
          "name": "newOwner",
          "type": "address"
        }
      ],
      "name": "transferOwnership",
      "outputs": [],
      "stateMutability": "nonpayable",
      "type": "function"
    },
    {
      "inputs": [
        {
          "internalType": "address",
          "name": "",
          "type": "address"
        },
        {
          "internalType": "uint256",
          "name": "",
          "type": "uint256"
        }
      ],
      "name": "userInvestments",
      "outputs": [
        {
          "internalType": "address",
          "name": "token",
          "type": "address"
        },
        {
          "internalType": "uint256",
          "name": "amount",
          "type": "uint256"
        },
        {
          "internalType": "uint256",
          "name": "balance",
          "type": "uint256"
        },
        {
          "internalType": "uint256",
          "name": "timestamp",
          "type": "uint256"
        }
      ],
      "stateMutability": "view",
      "type": "function"
    },
    {
      "inputs": [
        {
          "internalType": "address",
          "name": "",
          "type": "address"
        },
        {
          "internalType": "address",
          "name": "",
          "type": "address"
        },
        {
          "internalType": "address",
          "name": "",
          "type": "address"
        }
      ],
      "name": "userLP",
      "outputs": [
        {
          "internalType": "uint256",
          "name": "",
          "type": "uint256"
        }
      ],
      "stateMutability": "view",
      "type": "function"
    },
    {
      "inputs": [],
      "name": "withdrawAll",
      "outputs": [],
      "stateMutability": "nonpayable",
      "type": "function"
    }
  ],
  "transactionHash": "0x7bacfe96a1ad9ac337f1faf5f69b59f019110b6ff973a7a547fbc792a7a8951a",
  "args": [],
  "numDeployments": 1,
  "solcInputHash": "36f8b6d02c3bc8235e5f64815a9e4b87",
  "bytecode": "0x608060405234801561001057600080fd5b50338061003757604051631e4fbdf760e01b81526000600482015260240160405180910390fd5b61004081610046565b50610096565b600080546001600160a01b038381166001600160a01b0319831681178455604051919092169283917f8be0079c531659141344cd1fd0a4f28419497f9722a3daafe3b4186f6b6457e09190a35050565b6111e0806100a56000396000f3fe608060405234801561001057600080fd5b50600436106100ce5760003560e01c8063715018a61161008c5780638da5cb5b116100665780638da5cb5b146101bb5780639244adcd146101d6578063d95edafe14610213578063f2fde38b1461022657600080fd5b8063715018a61461018b5780638460e59514610193578063853828b6146101b357600080fd5b8062ce8e3e146100d3578063146b58df146100f15780631879ee60146101115780633816a2921461015057806347e7ef24146101655780635acabb3e14610178575b600080fd5b6100db610239565b6040516100e89190610ec6565b60405180910390f35b6101046100ff366004610f2f565b61029b565b6040516100e89190610f51565b61014261011f366004610fbe565b600360209081526000938452604080852082529284528284209052825290205481565b6040519081526020016100e8565b61016361015e36600461100f565b61033b565b005b610163610173366004611046565b61036e565b610163610186366004611070565b6105b8565b6101636108c9565b6101a66101a1366004610f2f565b6108dd565b6040516100e891906110e0565b610163610960565b6000546040516001600160a01b0390911681526020016100e8565b6101e96101e4366004611046565b610cec565b604080516001600160a01b03909516855260208501939093529183015260608201526080016100e8565b610163610221366004610f2f565b610d3c565b610163610234366004610f2f565b610db7565b6060600680548060200260200160405190810160405280929190818152602001828054801561029157602002820191906000526020600020905b81546001600160a01b03168152600190910190602001808311610273575b5050505050905090565b6001600160a01b0381166000908152600560209081526040808320805482518185028101850190935280835260609492939192909184015b82821015610330576000848152602090819020604080516080810182526004860290920180546001600160a01b031683526001808201548486015260028201549284019290925260030154606083015290835290920191016102d3565b505050509050919050565b610343610df5565b6001600160a01b03919091166000908152600260205260409020805460ff1916911515919091179055565b600081116103c35760405162461bcd60e51b815260206004820181905260248201527f416d6f756e74206d7573742062652067726561746572207468616e207a65726f60448201526064015b60405180910390fd5b6001600160a01b03821660009081526002602052604090205460ff16806103f157506001600160a01b038216155b61042d5760405162461bcd60e51b815260206004820152600d60248201526c24b73b30b634b2103a37b5b2b760991b60448201526064016103ba565b6007546040516323b872dd60e01b81523360048201526001600160a01b03918216602482015260448101839052908316906323b872dd906064016020604051808303816000875af1158015610486573d6000803e3d6000fd5b505050506040513d601f19601f820116820180604052508101906104aa919061112f565b5033600081815260056020908152604080832081516080810183526001600160a01b0388811682528185018881528285018981524260608501818152865460018181018955978b52988a20955160049099029095018054989094166001600160a01b031998891617845591518386015551600283015591516003909101556006805492830181559094527ff652222313e28459528d920b65115c16c04f3efc82aaedc97be59f3f377c0d3f0180549092168417909155517f93638e6cf18b4f6a839de65df95898221f5d9f7dc54b87d4b31d40297643266e916105ac91869186916001600160a01b039390931683526020830191909152604082015260600190565b60405180910390a25050565b6007546001600160a01b031633146106015760405162461bcd60e51b815260206004820152600c60248201526b155b985d5d1a1bdc9a5cd95960a21b60448201526064016103ba565b8060ff1660000361072b576001600160a01b038087166000908152600360209081526040808320898516845282528083209388168352929052908120805485929061064d908490611162565b90915550506001600160a01b038087166000908152600460209081526040808320815180830190925289851682528885168284019081528154600181810184559286529385209251600290940290920180549386166001600160a01b0319948516178155915191018054919094169116179091556106ca8761029b565b905060005b8151811015610728576001600160a01b03881660009081526005602052604081208054839081106107025761070261117b565b60009182526020909120600260049092020101558061072081611191565b9150506106cf565b50505b8060ff166001036108c15760056000336001600160a01b03166001600160a01b031681526020019081526020016000206040518060800160405280876001600160a01b0316815260200185815260200185815260200142815250908060018154018082558091505060019003906000526020600020906004020160009091909190915060008201518160000160006101000a8154816001600160a01b0302191690836001600160a01b03160217905550602082015181600101556040820151816002015560608201518160030155505060056000336001600160a01b03166001600160a01b031681526020019081526020016000206040518060800160405280866001600160a01b0316815260200184815260200184815260200142815250908060018154018082558091505060019003906000526020600020906004020160009091909190915060008201518160000160006101000a8154816001600160a01b0302191690836001600160a01b0316021790555060208201518160010155604082015181600201556060820151816003015550505b505050505050565b6108d1610df5565b6108db6000610e22565b565b6001600160a01b0381166000908152600460209081526040808320805482518185028101850190935280835260609492939192909184015b82821015610330576000848152602090819020604080518082019091526002850290910180546001600160a01b03908116835260019182015416828401529083529092019101610915565b600061096b3361029b565b905060005b8151811015610ae65760015482516001600160a01b039091169063d9caed129033908590859081106109a4576109a461117b565b6020026020010151600001518585815181106109c2576109c261117b565b602090810291909101015160409081015190516001600160e01b031960e086901b1681526001600160a01b0393841660048201529290911660248301526044820152606401600060405180830381600087803b158015610a2157600080fd5b505af1158015610a35573d6000803e3d6000fd5b50505050336001600160a01b03167f91fb9d98b786c57d74c099ccd2beca1739e9f6a81fb49001ca465c4b7591bbe2838381518110610a7657610a7661117b565b602002602001015160000151848481518110610a9457610a9461117b565b60200260200101516040015142604051610acc939291906001600160a01b039390931683526020830191909152604082015260600190565b60405180910390a280610ade81611191565b915050610970565b50336000908152600560205260408120610aff91610e72565b6000610b0a336108dd565b905060005b8151811015610ce75760015482516001600160a01b0390911690633480c458903390859085908110610b4357610b4361117b565b602002602001015160000151858581518110610b6157610b6161117b565b6020026020010151602001516040518463ffffffff1660e01b8152600401610ba9939291906001600160a01b0393841681529183166020830152909116604082015260600190565b600060405180830381600087803b158015610bc357600080fd5b505af1158015610bd7573d6000803e3d6000fd5b5050336000908152600360205260408120855191935091508290859085908110610c0357610c0361117b565b6020026020010151600001516001600160a01b03166001600160a01b031681526020019081526020016000206000848481518110610c4357610c4361117b565b6020026020010151602001516001600160a01b03166001600160a01b031681526020019081526020016000208190555060046000336001600160a01b03166001600160a01b031681526020019081526020016000208181548110610ca957610ca961117b565b6000918252602090912060029091020180546001600160a01b0319908116825560019091018054909116905580610cdf81611191565b915050610b0f565b505050565b60056020528160005260406000208181548110610d0857600080fd5b600091825260209091206004909102018054600182015460028301546003909301546001600160a01b039092169450925084565b610d44610df5565b6007546001600160a01b031615610d8b5760405162461bcd60e51b815260206004820152600b60248201526a105b1c9958591e481cd95d60aa1b60448201526064016103ba565b600780546001600160a01b039092166001600160a01b0319928316811790915560018054909216179055565b610dbf610df5565b6001600160a01b038116610de957604051631e4fbdf760e01b8152600060048201526024016103ba565b610df281610e22565b50565b6000546001600160a01b031633146108db5760405163118cdaa760e01b81523360048201526024016103ba565b600080546001600160a01b038381166001600160a01b0319831681178455604051919092169283917f8be0079c531659141344cd1fd0a4f28419497f9722a3daafe3b4186f6b6457e09190a35050565b5080546000825560040290600052602060002090810190610df291905b80821115610ec25780546001600160a01b0319168155600060018201819055600282018190556003820155600401610e8f565b5090565b6020808252825182820181905260009190848201906040850190845b81811015610f075783516001600160a01b031683529284019291840191600101610ee2565b50909695505050505050565b80356001600160a01b0381168114610f2a57600080fd5b919050565b600060208284031215610f4157600080fd5b610f4a82610f13565b9392505050565b602080825282518282018190526000919060409081850190868401855b82811015610fb157815180516001600160a01b03168552868101518786015285810151868601526060908101519085015260809093019290850190600101610f6e565b5091979650505050505050565b600080600060608486031215610fd357600080fd5b610fdc84610f13565b9250610fea60208501610f13565b9150610ff860408501610f13565b90509250925092565b8015158114610df257600080fd5b6000806040838503121561102257600080fd5b61102b83610f13565b9150602083013561103b81611001565b809150509250929050565b6000806040838503121561105957600080fd5b61106283610f13565b946020939093013593505050565b60008060008060008060c0878903121561108957600080fd5b61109287610f13565b95506110a060208801610f13565b94506110ae60408801610f13565b9350606087013592506080870135915060a087013560ff811681146110d257600080fd5b809150509295509295509295565b602080825282518282018190526000919060409081850190868401855b82811015610fb157815180516001600160a01b03908116865290870151168685015292840192908501906001016110fd565b60006020828403121561114157600080fd5b8151610f4a81611001565b634e487b7160e01b600052601160045260246000fd5b808201808211156111755761117561114c565b92915050565b634e487b7160e01b600052603260045260246000fd5b6000600182016111a3576111a361114c565b506001019056fea2646970667358221220a2130d60e95a17de03332a7be7fed9190546384c181f27704cba61a47ef3548564736f6c63430008140033",
  "devdoc": {
    "errors": {
      "OwnableInvalidOwner(address)": [
        {
          "details": "The owner is not a valid owner account. (eg. `address(0)`)"
        }
      ],
      "OwnableUnauthorizedAccount(address)": [
        {
          "details": "The caller account is not authorized to perform an operation."
        }
      ]
    },
    "kind": "dev",
    "methods": {
      "owner()": {
        "details": "Returns the address of the current owner."
      },
      "renounceOwnership()": {
        "details": "Leaves the contract without owner. It will not be possible to call `onlyOwner` functions. Can only be called by the current owner. NOTE: Renouncing ownership will leave the contract without an owner, thereby disabling any functionality that is only available to the owner."
      },
      "transferOwnership(address)": {
        "details": "Transfers ownership of the contract to a new account (`newOwner`). Can only be called by the current owner."
      }
    },
    "version": 1
  },
  "userdoc": {
    "kind": "user",
    "methods": {},
    "version": 1
  },
  "storageLayout": {
    "storage": [
      {
        "astId": 8,
        "contract": "contracts/NeuralFi.sol:NeuralFi",
        "label": "_owner",
        "offset": 0,
        "slot": "0",
        "type": "t_address"
      },
      {
        "astId": 975,
        "contract": "contracts/NeuralFi.sol:NeuralFi",
        "label": "aggregator",
        "offset": 0,
        "slot": "1",
        "type": "t_contract(YieldAggregator)2149"
      },
      {
        "astId": 979,
        "contract": "contracts/NeuralFi.sol:NeuralFi",
        "label": "allowedTokens",
        "offset": 0,
        "slot": "2",
        "type": "t_mapping(t_address,t_bool)"
      },
      {
        "astId": 987,
        "contract": "contracts/NeuralFi.sol:NeuralFi",
        "label": "userLP",
        "offset": 0,
        "slot": "3",
        "type": "t_mapping(t_address,t_mapping(t_address,t_mapping(t_address,t_uint256)))"
      },
      {
        "astId": 998,
        "contract": "contracts/NeuralFi.sol:NeuralFi",
        "label": "userLps",
        "offset": 0,
        "slot": "4",
        "type": "t_mapping(t_address,t_array(t_struct(UserLPs)992_storage)dyn_storage)"
      },
      {
        "astId": 1004,
        "contract": "contracts/NeuralFi.sol:NeuralFi",
        "label": "userInvestments",
        "offset": 0,
        "slot": "5",
        "type": "t_mapping(t_address,t_array(t_struct(Investment)972_storage)dyn_storage)"
      },
      {
        "astId": 1007,
        "contract": "contracts/NeuralFi.sol:NeuralFi",
        "label": "users",
        "offset": 0,
        "slot": "6",
        "type": "t_array(t_address)dyn_storage"
      },
      {
        "astId": 1009,
        "contract": "contracts/NeuralFi.sol:NeuralFi",
        "label": "yield",
        "offset": 0,
        "slot": "7",
        "type": "t_address"
      }
    ],
    "types": {
      "t_address": {
        "encoding": "inplace",
        "label": "address",
        "numberOfBytes": "20"
      },
      "t_array(t_address)dyn_storage": {
        "base": "t_address",
        "encoding": "dynamic_array",
        "label": "address[]",
        "numberOfBytes": "32"
      },
      "t_array(t_struct(Investment)972_storage)dyn_storage": {
        "base": "t_struct(Investment)972_storage",
        "encoding": "dynamic_array",
        "label": "struct NeuralFi.Investment[]",
        "numberOfBytes": "32"
      },
      "t_array(t_struct(UserLPs)992_storage)dyn_storage": {
        "base": "t_struct(UserLPs)992_storage",
        "encoding": "dynamic_array",
        "label": "struct NeuralFi.UserLPs[]",
        "numberOfBytes": "32"
      },
      "t_bool": {
        "encoding": "inplace",
        "label": "bool",
        "numberOfBytes": "1"
      },
      "t_contract(YieldAggregator)2149": {
        "encoding": "inplace",
        "label": "contract YieldAggregator",
        "numberOfBytes": "20"
      },
      "t_mapping(t_address,t_array(t_struct(Investment)972_storage)dyn_storage)": {
        "encoding": "mapping",
        "key": "t_address",
        "label": "mapping(address => struct NeuralFi.Investment[])",
        "numberOfBytes": "32",
        "value": "t_array(t_struct(Investment)972_storage)dyn_storage"
      },
      "t_mapping(t_address,t_array(t_struct(UserLPs)992_storage)dyn_storage)": {
        "encoding": "mapping",
        "key": "t_address",
        "label": "mapping(address => struct NeuralFi.UserLPs[])",
        "numberOfBytes": "32",
        "value": "t_array(t_struct(UserLPs)992_storage)dyn_storage"
      },
      "t_mapping(t_address,t_bool)": {
        "encoding": "mapping",
        "key": "t_address",
        "label": "mapping(address => bool)",
        "numberOfBytes": "32",
        "value": "t_bool"
      },
      "t_mapping(t_address,t_mapping(t_address,t_mapping(t_address,t_uint256)))": {
        "encoding": "mapping",
        "key": "t_address",
        "label": "mapping(address => mapping(address => mapping(address => uint256)))",
        "numberOfBytes": "32",
        "value": "t_mapping(t_address,t_mapping(t_address,t_uint256))"
      },
      "t_mapping(t_address,t_mapping(t_address,t_uint256))": {
        "encoding": "mapping",
        "key": "t_address",
        "label": "mapping(address => mapping(address => uint256))",
        "numberOfBytes": "32",
        "value": "t_mapping(t_address,t_uint256)"
      },
      "t_mapping(t_address,t_uint256)": {
        "encoding": "mapping",
        "key": "t_address",
        "label": "mapping(address => uint256)",
        "numberOfBytes": "32",
        "value": "t_uint256"
      },
      "t_struct(Investment)972_storage": {
        "encoding": "inplace",
        "label": "struct NeuralFi.Investment",
        "members": [
          {
            "astId": 965,
            "contract": "contracts/NeuralFi.sol:NeuralFi",
            "label": "token",
            "offset": 0,
            "slot": "0",
            "type": "t_address"
          },
          {
            "astId": 967,
            "contract": "contracts/NeuralFi.sol:NeuralFi",
            "label": "amount",
            "offset": 0,
            "slot": "1",
            "type": "t_uint256"
          },
          {
            "astId": 969,
            "contract": "contracts/NeuralFi.sol:NeuralFi",
            "label": "balance",
            "offset": 0,
            "slot": "2",
            "type": "t_uint256"
          },
          {
            "astId": 971,
            "contract": "contracts/NeuralFi.sol:NeuralFi",
            "label": "timestamp",
            "offset": 0,
            "slot": "3",
            "type": "t_uint256"
          }
        ],
        "numberOfBytes": "128"
      },
      "t_struct(UserLPs)992_storage": {
        "encoding": "inplace",
        "label": "struct NeuralFi.UserLPs",
        "members": [
          {
            "astId": 989,
            "contract": "contracts/NeuralFi.sol:NeuralFi",
            "label": "tokenA",
            "offset": 0,
            "slot": "0",
            "type": "t_address"
          },
          {
            "astId": 991,
            "contract": "contracts/NeuralFi.sol:NeuralFi",
            "label": "tokenB",
            "offset": 0,
            "slot": "1",
            "type": "t_address"
          }
        ],
        "numberOfBytes": "64"
      },
      "t_uint256": {
        "encoding": "inplace",
        "label": "uint256",
        "numberOfBytes": "32"
      }
    }
  }
}